{
  "contractName": "StarNotary",
  "abi": [
    {
      "inputs": [],
      "stateMutability": "nonpayable",
      "type": "constructor"
    },
    {
      "anonymous": false,
      "inputs": [
        {
          "indexed": true,
          "internalType": "address",
          "name": "owner",
          "type": "address"
        },
        {
          "indexed": true,
          "internalType": "address",
          "name": "approved",
          "type": "address"
        },
        {
          "indexed": true,
          "internalType": "uint256",
          "name": "tokenId",
          "type": "uint256"
        }
      ],
      "name": "Approval",
      "type": "event"
    },
    {
      "anonymous": false,
      "inputs": [
        {
          "indexed": true,
          "internalType": "address",
          "name": "owner",
          "type": "address"
        },
        {
          "indexed": true,
          "internalType": "address",
          "name": "operator",
          "type": "address"
        },
        {
          "indexed": false,
          "internalType": "bool",
          "name": "approved",
          "type": "bool"
        }
      ],
      "name": "ApprovalForAll",
      "type": "event"
    },
    {
      "anonymous": false,
      "inputs": [
        {
          "indexed": true,
          "internalType": "address",
          "name": "from",
          "type": "address"
        },
        {
          "indexed": true,
          "internalType": "address",
          "name": "to",
          "type": "address"
        },
        {
          "indexed": true,
          "internalType": "uint256",
          "name": "tokenId",
          "type": "uint256"
        }
      ],
      "name": "Transfer",
      "type": "event"
    },
    {
      "inputs": [
        {
          "internalType": "address",
          "name": "to",
          "type": "address"
        },
        {
          "internalType": "uint256",
          "name": "tokenId",
          "type": "uint256"
        }
      ],
      "name": "approve",
      "outputs": [],
      "stateMutability": "nonpayable",
      "type": "function"
    },
    {
      "inputs": [
        {
          "internalType": "address",
          "name": "owner",
          "type": "address"
        }
      ],
      "name": "balanceOf",
      "outputs": [
        {
          "internalType": "uint256",
          "name": "",
          "type": "uint256"
        }
      ],
      "stateMutability": "view",
      "type": "function",
      "constant": true
    },
    {
      "inputs": [
        {
          "internalType": "uint256",
          "name": "tokenId",
          "type": "uint256"
        }
      ],
      "name": "getApproved",
      "outputs": [
        {
          "internalType": "address",
          "name": "",
          "type": "address"
        }
      ],
      "stateMutability": "view",
      "type": "function",
      "constant": true
    },
    {
      "inputs": [
        {
          "internalType": "address",
          "name": "owner",
          "type": "address"
        },
        {
          "internalType": "address",
          "name": "operator",
          "type": "address"
        }
      ],
      "name": "isApprovedForAll",
      "outputs": [
        {
          "internalType": "bool",
          "name": "",
          "type": "bool"
        }
      ],
      "stateMutability": "view",
      "type": "function",
      "constant": true
    },
    {
      "inputs": [],
      "name": "name",
      "outputs": [
        {
          "internalType": "string",
          "name": "",
          "type": "string"
        }
      ],
      "stateMutability": "view",
      "type": "function",
      "constant": true
    },
    {
      "inputs": [
        {
          "internalType": "uint256",
          "name": "tokenId",
          "type": "uint256"
        }
      ],
      "name": "ownerOf",
      "outputs": [
        {
          "internalType": "address",
          "name": "",
          "type": "address"
        }
      ],
      "stateMutability": "view",
      "type": "function",
      "constant": true
    },
    {
      "inputs": [
        {
          "internalType": "address",
          "name": "from",
          "type": "address"
        },
        {
          "internalType": "address",
          "name": "to",
          "type": "address"
        },
        {
          "internalType": "uint256",
          "name": "tokenId",
          "type": "uint256"
        }
      ],
      "name": "safeTransferFrom",
      "outputs": [],
      "stateMutability": "nonpayable",
      "type": "function"
    },
    {
      "inputs": [
        {
          "internalType": "address",
          "name": "from",
          "type": "address"
        },
        {
          "internalType": "address",
          "name": "to",
          "type": "address"
        },
        {
          "internalType": "uint256",
          "name": "tokenId",
          "type": "uint256"
        },
        {
          "internalType": "bytes",
          "name": "_data",
          "type": "bytes"
        }
      ],
      "name": "safeTransferFrom",
      "outputs": [],
      "stateMutability": "nonpayable",
      "type": "function"
    },
    {
      "inputs": [
        {
          "internalType": "address",
          "name": "operator",
          "type": "address"
        },
        {
          "internalType": "bool",
          "name": "approved",
          "type": "bool"
        }
      ],
      "name": "setApprovalForAll",
      "outputs": [],
      "stateMutability": "nonpayable",
      "type": "function"
    },
    {
      "inputs": [
        {
          "internalType": "uint256",
          "name": "",
          "type": "uint256"
        }
      ],
      "name": "starsForSale",
      "outputs": [
        {
          "internalType": "uint256",
          "name": "",
          "type": "uint256"
        }
      ],
      "stateMutability": "view",
      "type": "function",
      "constant": true
    },
    {
      "inputs": [
        {
          "internalType": "bytes4",
          "name": "interfaceId",
          "type": "bytes4"
        }
      ],
      "name": "supportsInterface",
      "outputs": [
        {
          "internalType": "bool",
          "name": "",
          "type": "bool"
        }
      ],
      "stateMutability": "view",
      "type": "function",
      "constant": true
    },
    {
      "inputs": [],
      "name": "symbol",
      "outputs": [
        {
          "internalType": "string",
          "name": "",
          "type": "string"
        }
      ],
      "stateMutability": "view",
      "type": "function",
      "constant": true
    },
    {
      "inputs": [
        {
          "internalType": "uint256",
          "name": "",
          "type": "uint256"
        }
      ],
      "name": "tokenIdToStarInfo",
      "outputs": [
        {
          "internalType": "string",
          "name": "name",
          "type": "string"
        }
      ],
      "stateMutability": "view",
      "type": "function",
      "constant": true
    },
    {
      "inputs": [
        {
          "internalType": "uint256",
          "name": "tokenId",
          "type": "uint256"
        }
      ],
      "name": "tokenURI",
      "outputs": [
        {
          "internalType": "string",
          "name": "",
          "type": "string"
        }
      ],
      "stateMutability": "view",
      "type": "function",
      "constant": true
    },
    {
      "inputs": [
        {
          "internalType": "address",
          "name": "from",
          "type": "address"
        },
        {
          "internalType": "address",
          "name": "to",
          "type": "address"
        },
        {
          "internalType": "uint256",
          "name": "tokenId",
          "type": "uint256"
        }
      ],
      "name": "transferFrom",
      "outputs": [],
      "stateMutability": "nonpayable",
      "type": "function"
    },
    {
      "inputs": [
        {
          "internalType": "string",
          "name": "_name",
          "type": "string"
        },
        {
          "internalType": "uint256",
          "name": "_tokenId",
          "type": "uint256"
        }
      ],
      "name": "createStar",
      "outputs": [],
      "stateMutability": "nonpayable",
      "type": "function"
    },
    {
      "inputs": [
        {
          "internalType": "uint256",
          "name": "_tokenId",
          "type": "uint256"
        },
        {
          "internalType": "uint256",
          "name": "_price",
          "type": "uint256"
        }
      ],
      "name": "putStarUpForSale",
      "outputs": [],
      "stateMutability": "nonpayable",
      "type": "function"
    },
    {
      "inputs": [
        {
          "internalType": "uint256",
          "name": "_tokenId",
          "type": "uint256"
        }
      ],
      "name": "buyStar",
      "outputs": [],
      "stateMutability": "payable",
      "type": "function",
      "payable": true
    },
    {
      "inputs": [
        {
          "internalType": "uint256",
          "name": "_tokenId",
          "type": "uint256"
        }
      ],
      "name": "lookUptokenIdToStarInfo",
      "outputs": [
        {
          "internalType": "string",
          "name": "",
          "type": "string"
        }
      ],
      "stateMutability": "view",
      "type": "function",
      "constant": true
    },
    {
      "inputs": [
        {
          "internalType": "uint256",
          "name": "_tokenId1",
          "type": "uint256"
        },
        {
          "internalType": "uint256",
          "name": "_tokenId2",
          "type": "uint256"
        }
      ],
      "name": "exchangeStars",
      "outputs": [],
      "stateMutability": "nonpayable",
      "type": "function"
    },
    {
      "inputs": [
        {
          "internalType": "address",
          "name": "_to1",
          "type": "address"
        },
        {
          "internalType": "uint256",
          "name": "_tokenId",
          "type": "uint256"
        }
      ],
      "name": "transferStar",
      "outputs": [],
      "stateMutability": "nonpayable",
      "type": "function"
    }
  ],
  "bytecode": "0x60806040523480156200001157600080fd5b506040518060400160405280600481526020017f53746172000000000000000000000000000000000000000000000000000000008152506040518060400160405280600381526020017f5354520000000000000000000000000000000000000000000000000000000000815250816000908051906020019062000096929190620000b8565b508060019080519060200190620000af929190620000b8565b505050620001cd565b828054620000c69062000168565b90600052602060002090601f016020900481019282620000ea576000855562000136565b82601f106200010557805160ff191683800117855562000136565b8280016001018555821562000136579182015b828111156200013557825182559160200191906001019062000118565b5b50905062000145919062000149565b5090565b5b80821115620001645760008160009055506001016200014a565b5090565b600060028204905060018216806200018157607f821691505b602082108114156200019857620001976200019e565b5b50919050565b7f4e487b7100000000000000000000000000000000000000000000000000000000600052602260045260246000fd5b61315980620001dd6000396000f3fe60806040526004361061012a5760003560e01c806342842e0e116100ab578063a22cb4651161006f578063a22cb46514610405578063b88d4fde1461042e578063c87b56dd14610457578063d7830ccb14610494578063e7152a5c146104d1578063e985e9c5146104fa5761012a565b806342842e0e1461030e5780636352211e1461033757806370a082311461037457806395d89b41146103b15780639697c0a1146103dc5761012a565b806315e0afa5116100f257806315e0afa51461023a5780631967fd981461026357806323b872dd146102a05780632f1c34ef146102c9578063316a4361146102e55761012a565b806301ffc9a71461012f5780630564b1301461016c57806306fdde03146101a9578063081812fc146101d4578063095ea7b314610211575b600080fd5b34801561013b57600080fd5b5061015660048036038101906101519190612117565b610537565b6040516101639190612a51565b60405180910390f35b34801561017857600080fd5b50610193600480360381019061018e91906121bd565b610619565b6040516101a09190612cee565b60405180910390f35b3480156101b557600080fd5b506101be610631565b6040516101cb9190612a6c565b60405180910390f35b3480156101e057600080fd5b506101fb60048036038101906101f691906121bd565b6106c3565b60405161020891906129ea565b60405180910390f35b34801561021d57600080fd5b50610238600480360381019061023391906120db565b610748565b005b34801561024657600080fd5b50610261600480360381019061025c91906121e6565b610860565b005b34801561026f57600080fd5b5061028a600480360381019061028591906121bd565b61094a565b6040516102979190612a6c565b60405180910390f35b3480156102ac57600080fd5b506102c760048036038101906102c29190611fd5565b6109f0565b005b6102e360048036038101906102de91906121bd565b610a50565b005b3480156102f157600080fd5b5061030c600480360381019061030791906121e6565b610bcd565b005b34801561031a57600080fd5b5061033560048036038101906103309190611fd5565b610c5f565b005b34801561034357600080fd5b5061035e600480360381019061035991906121bd565b610c7f565b60405161036b91906129ea565b60405180910390f35b34801561038057600080fd5b5061039b60048036038101906103969190611f70565b610d31565b6040516103a89190612cee565b60405180910390f35b3480156103bd57600080fd5b506103c6610de9565b6040516103d39190612a6c565b60405180910390f35b3480156103e857600080fd5b5061040360048036038101906103fe9190612169565b610e7b565b005b34801561041157600080fd5b5061042c6004803603810190610427919061209f565b610ed1565b005b34801561043a57600080fd5b5061045560048036038101906104509190612024565b611052565b005b34801561046357600080fd5b5061047e600480360381019061047991906121bd565b6110b4565b60405161048b9190612a6c565b60405180910390f35b3480156104a057600080fd5b506104bb60048036038101906104b691906121bd565b61115b565b6040516104c89190612a6c565b60405180910390f35b3480156104dd57600080fd5b506104f860048036038101906104f391906120db565b611203565b005b34801561050657600080fd5b50610521600480360381019061051c9190611f99565b611288565b60405161052e9190612a51565b60405180910390f35b60007f80ac58cd000000000000000000000000000000000000000000000000000000007bffffffffffffffffffffffffffffffffffffffffffffffffffffffff1916827bffffffffffffffffffffffffffffffffffffffffffffffffffffffff1916148061060257507f5b5e139f000000000000000000000000000000000000000000000000000000007bffffffffffffffffffffffffffffffffffffffffffffffffffffffff1916827bffffffffffffffffffffffffffffffffffffffffffffffffffffffff1916145b8061061257506106118261131c565b5b9050919050565b60076020528060005260406000206000915090505481565b60606000805461064090612f4e565b80601f016020809104026020016040519081016040528092919081815260200182805461066c90612f4e565b80156106b95780601f1061068e576101008083540402835291602001916106b9565b820191906000526020600020905b81548152906001019060200180831161069c57829003601f168201915b5050505050905090565b60006106ce82611386565b61070d576040517f08c379a000000000000000000000000000000000000000000000000000000000815260040161070490612bee565b60405180910390fd5b6004600083815260200190815260200160002060009054906101000a900473ffffffffffffffffffffffffffffffffffffffff169050919050565b600061075382610c7f565b90508073ffffffffffffffffffffffffffffffffffffffff168373ffffffffffffffffffffffffffffffffffffffff1614156107c4576040517f08c379a00000000000000000000000000000000000000000000000000000000081526004016107bb90612c6e565b60405180910390fd5b8073ffffffffffffffffffffffffffffffffffffffff166107e36113f2565b73ffffffffffffffffffffffffffffffffffffffff16148061081257506108118161080c6113f2565b611288565b5b610851576040517f08c379a000000000000000000000000000000000000000000000000000000000815260040161084890612b6e565b60405180910390fd5b61085b83836113fa565b505050565b3373ffffffffffffffffffffffffffffffffffffffff1661088083610c7f565b73ffffffffffffffffffffffffffffffffffffffff1614806108d557503373ffffffffffffffffffffffffffffffffffffffff166108bd82610c7f565b73ffffffffffffffffffffffffffffffffffffffff16145b610914576040517f08c379a000000000000000000000000000000000000000000000000000000000815260040161090b90612c8e565b60405180910390fd5b600061091f83610c7f565b9050600061092c83610c7f565b90506109398282866114b3565b6109448183856114b3565b50505050565b600660205280600052604060002060009150905080600001805461096d90612f4e565b80601f016020809104026020016040519081016040528092919081815260200182805461099990612f4e565b80156109e65780601f106109bb576101008083540402835291602001916109e6565b820191906000526020600020905b8154815290600101906020018083116109c957829003601f168201915b5050505050905081565b610a016109fb6113f2565b8261170f565b610a40576040517f08c379a0000000000000000000000000000000000000000000000000000000008152600401610a3790612cce565b60405180910390fd5b610a4b8383836114b3565b505050565b6000600760008381526020019081526020016000205411610aa6576040517f08c379a0000000000000000000000000000000000000000000000000000000008152600401610a9d90612cae565b60405180910390fd5b6000600760008381526020019081526020016000205490506000610ac983610c7f565b9050813411610b0d576040517f08c379a0000000000000000000000000000000000000000000000000000000008152600401610b0490612c4e565b60405180910390fd5b610b188133856114b3565b6000610b23826117ed565b90508073ffffffffffffffffffffffffffffffffffffffff166108fc849081150290604051600060405180830381858888f19350505050158015610b6b573d6000803e3d6000fd5b5082341115610bc7573373ffffffffffffffffffffffffffffffffffffffff166108fc8434610b9a9190612e64565b9081150290604051600060405180830381858888f19350505050158015610bc5573d6000803e3d6000fd5b505b50505050565b3373ffffffffffffffffffffffffffffffffffffffff16610bed83610c7f565b73ffffffffffffffffffffffffffffffffffffffff1614610c43576040517f08c379a0000000000000000000000000000000000000000000000000000000008152600401610c3a90612a8e565b60405180910390fd5b8060076000848152602001908152602001600020819055505050565b610c7a83838360405180602001604052806000815250611052565b505050565b6000806002600084815260200190815260200160002060009054906101000a900473ffffffffffffffffffffffffffffffffffffffff169050600073ffffffffffffffffffffffffffffffffffffffff168173ffffffffffffffffffffffffffffffffffffffff161415610d28576040517f08c379a0000000000000000000000000000000000000000000000000000000008152600401610d1f90612bae565b60405180910390fd5b80915050919050565b60008073ffffffffffffffffffffffffffffffffffffffff168273ffffffffffffffffffffffffffffffffffffffff161415610da2576040517f08c379a0000000000000000000000000000000000000000000000000000000008152600401610d9990612b8e565b60405180910390fd5b600360008373ffffffffffffffffffffffffffffffffffffffff1673ffffffffffffffffffffffffffffffffffffffff168152602001908152602001600020549050919050565b606060018054610df890612f4e565b80601f0160208091040260200160405190810160405280929190818152602001828054610e2490612f4e565b8015610e715780601f10610e4657610100808354040283529160200191610e71565b820191906000526020600020905b815481529060010190602001808311610e5457829003601f168201915b5050505050905090565b6000604051806020016040528084815250905080600660008481526020019081526020016000206000820151816000019080519060200190610ebe929190611d94565b50905050610ecc33836117f7565b505050565b610ed96113f2565b73ffffffffffffffffffffffffffffffffffffffff168273ffffffffffffffffffffffffffffffffffffffff161415610f47576040517f08c379a0000000000000000000000000000000000000000000000000000000008152600401610f3e90612b2e565b60405180910390fd5b8060056000610f546113f2565b73ffffffffffffffffffffffffffffffffffffffff1673ffffffffffffffffffffffffffffffffffffffff16815260200190815260200160002060008473ffffffffffffffffffffffffffffffffffffffff1673ffffffffffffffffffffffffffffffffffffffff16815260200190815260200160002060006101000a81548160ff0219169083151502179055508173ffffffffffffffffffffffffffffffffffffffff166110016113f2565b73ffffffffffffffffffffffffffffffffffffffff167f17307eab39ab6107e8899845ad3d59bd9653f200f220920489ca2b5937696c31836040516110469190612a51565b60405180910390a35050565b61106361105d6113f2565b8361170f565b6110a2576040517f08c379a000000000000000000000000000000000000000000000000000000000815260040161109990612cce565b60405180910390fd5b6110ae848484846119c5565b50505050565b60606110bf82611386565b6110fe576040517f08c379a00000000000000000000000000000000000000000000000000000000081526004016110f590612c2e565b60405180910390fd5b6000611108611a21565b905060008151116111285760405180602001604052806000815250611153565b8061113284611a38565b6040516020016111439291906129c6565b6040516020818303038152906040525b915050919050565b606060066000838152602001908152602001600020600001805461117e90612f4e565b80601f01602080910402602001604051908101604052809291908181526020018280546111aa90612f4e565b80156111f75780601f106111cc576101008083540402835291602001916111f7565b820191906000526020600020905b8154815290600101906020018083116111da57829003601f168201915b50505050509050919050565b3373ffffffffffffffffffffffffffffffffffffffff1661122382610c7f565b73ffffffffffffffffffffffffffffffffffffffff1614611279576040517f08c379a000000000000000000000000000000000000000000000000000000000815260040161127090612aae565b60405180910390fd5b6112843383836114b3565b5050565b6000600560008473ffffffffffffffffffffffffffffffffffffffff1673ffffffffffffffffffffffffffffffffffffffff16815260200190815260200160002060008373ffffffffffffffffffffffffffffffffffffffff1673ffffffffffffffffffffffffffffffffffffffff16815260200190815260200160002060009054906101000a900460ff16905092915050565b60007f01ffc9a7000000000000000000000000000000000000000000000000000000007bffffffffffffffffffffffffffffffffffffffffffffffffffffffff1916827bffffffffffffffffffffffffffffffffffffffffffffffffffffffff1916149050919050565b60008073ffffffffffffffffffffffffffffffffffffffff166002600084815260200190815260200160002060009054906101000a900473ffffffffffffffffffffffffffffffffffffffff1673ffffffffffffffffffffffffffffffffffffffff1614159050919050565b600033905090565b816004600083815260200190815260200160002060006101000a81548173ffffffffffffffffffffffffffffffffffffffff021916908373ffffffffffffffffffffffffffffffffffffffff160217905550808273ffffffffffffffffffffffffffffffffffffffff1661146d83610c7f565b73ffffffffffffffffffffffffffffffffffffffff167f8c5be1e5ebec7d5bd14f71427d1e84f3dd0314c0f7b2291e5b200ac8c7c3b92560405160405180910390a45050565b8273ffffffffffffffffffffffffffffffffffffffff166114d382610c7f565b73ffffffffffffffffffffffffffffffffffffffff1614611529576040517f08c379a000000000000000000000000000000000000000000000000000000000815260040161152090612c0e565b60405180910390fd5b600073ffffffffffffffffffffffffffffffffffffffff168273ffffffffffffffffffffffffffffffffffffffff161415611599576040517f08c379a000000000000000000000000000000000000000000000000000000000815260040161159090612b0e565b60405180910390fd5b6115a4838383611be5565b6115af6000826113fa565b6001600360008573ffffffffffffffffffffffffffffffffffffffff1673ffffffffffffffffffffffffffffffffffffffff16815260200190815260200160002060008282546115ff9190612e64565b925050819055506001600360008473ffffffffffffffffffffffffffffffffffffffff1673ffffffffffffffffffffffffffffffffffffffff16815260200190815260200160002060008282546116569190612ddd565b92505081905550816002600083815260200190815260200160002060006101000a81548173ffffffffffffffffffffffffffffffffffffffff021916908373ffffffffffffffffffffffffffffffffffffffff160217905550808273ffffffffffffffffffffffffffffffffffffffff168473ffffffffffffffffffffffffffffffffffffffff167fddf252ad1be2c89b69c2b068fc378daa952ba7f163c4a11628f55a4df523b3ef60405160405180910390a4505050565b600061171a82611386565b611759576040517f08c379a000000000000000000000000000000000000000000000000000000000815260040161175090612b4e565b60405180910390fd5b600061176483610c7f565b90508073ffffffffffffffffffffffffffffffffffffffff168473ffffffffffffffffffffffffffffffffffffffff1614806117d357508373ffffffffffffffffffffffffffffffffffffffff166117bb846106c3565b73ffffffffffffffffffffffffffffffffffffffff16145b806117e457506117e38185611288565b5b91505092915050565b6000819050919050565b600073ffffffffffffffffffffffffffffffffffffffff168273ffffffffffffffffffffffffffffffffffffffff161415611867576040517f08c379a000000000000000000000000000000000000000000000000000000000815260040161185e90612bce565b60405180910390fd5b61187081611386565b156118b0576040517f08c379a00000000000000000000000000000000000000000000000000000000081526004016118a790612aee565b60405180910390fd5b6118bc60008383611be5565b6001600360008473ffffffffffffffffffffffffffffffffffffffff1673ffffffffffffffffffffffffffffffffffffffff168152602001908152602001600020600082825461190c9190612ddd565b92505081905550816002600083815260200190815260200160002060006101000a81548173ffffffffffffffffffffffffffffffffffffffff021916908373ffffffffffffffffffffffffffffffffffffffff160217905550808273ffffffffffffffffffffffffffffffffffffffff16600073ffffffffffffffffffffffffffffffffffffffff167fddf252ad1be2c89b69c2b068fc378daa952ba7f163c4a11628f55a4df523b3ef60405160405180910390a45050565b6119d08484846114b3565b6119dc84848484611bea565b611a1b576040517f08c379a0000000000000000000000000000000000000000000000000000000008152600401611a1290612ace565b60405180910390fd5b50505050565b606060405180602001604052806000815250905090565b60606000821415611a80576040518060400160405280600181526020017f30000000000000000000000000000000000000000000000000000000000000008152509050611be0565b600082905060005b60008214611ab2578080611a9b90612f80565b915050600a82611aab9190612e33565b9150611a88565b60008167ffffffffffffffff811115611af4577f4e487b7100000000000000000000000000000000000000000000000000000000600052604160045260246000fd5b6040519080825280601f01601f191660200182016040528015611b265781602001600182028036833780820191505090505b5090505b60008514611bd957600182611b3f9190612e64565b9150600a85611b4e9190612fc9565b6030611b5a9190612ddd565b60f81b818381518110611b96577f4e487b7100000000000000000000000000000000000000000000000000000000600052603260045260246000fd5b60200101907effffffffffffffffffffffffffffffffffffffffffffffffffffffffffffff1916908160001a905350600a85611bd29190612e33565b9450611b2a565b8093505050505b919050565b505050565b6000611c0b8473ffffffffffffffffffffffffffffffffffffffff16611d81565b15611d74578373ffffffffffffffffffffffffffffffffffffffff1663150b7a02611c346113f2565b8786866040518563ffffffff1660e01b8152600401611c569493929190612a05565b602060405180830381600087803b158015611c7057600080fd5b505af1925050508015611ca157506040513d601f19601f82011682018060405250810190611c9e9190612140565b60015b611d24573d8060008114611cd1576040519150601f19603f3d011682016040523d82523d6000602084013e611cd6565b606091505b50600081511415611d1c576040517f08c379a0000000000000000000000000000000000000000000000000000000008152600401611d1390612ace565b60405180910390fd5b805181602001fd5b63150b7a0260e01b7bffffffffffffffffffffffffffffffffffffffffffffffffffffffff1916817bffffffffffffffffffffffffffffffffffffffffffffffffffffffff191614915050611d79565b600190505b949350505050565b600080823b905060008111915050919050565b828054611da090612f4e565b90600052602060002090601f016020900481019282611dc25760008555611e09565b82601f10611ddb57805160ff1916838001178555611e09565b82800160010185558215611e09579182015b82811115611e08578251825591602001919060010190611ded565b5b509050611e169190611e1a565b5090565b5b80821115611e33576000816000905550600101611e1b565b5090565b6000611e4a611e4584612d3a565b612d09565b905082815260208101848484011115611e6257600080fd5b611e6d848285612f0c565b509392505050565b6000611e88611e8384612d6a565b612d09565b905082815260208101848484011115611ea057600080fd5b611eab848285612f0c565b509392505050565b600081359050611ec2816130c7565b92915050565b600081359050611ed7816130de565b92915050565b600081359050611eec816130f5565b92915050565b600081519050611f01816130f5565b92915050565b600082601f830112611f1857600080fd5b8135611f28848260208601611e37565b91505092915050565b600082601f830112611f4257600080fd5b8135611f52848260208601611e75565b91505092915050565b600081359050611f6a8161310c565b92915050565b600060208284031215611f8257600080fd5b6000611f9084828501611eb3565b91505092915050565b60008060408385031215611fac57600080fd5b6000611fba85828601611eb3565b9250506020611fcb85828601611eb3565b9150509250929050565b600080600060608486031215611fea57600080fd5b6000611ff886828701611eb3565b935050602061200986828701611eb3565b925050604061201a86828701611f5b565b9150509250925092565b6000806000806080858703121561203a57600080fd5b600061204887828801611eb3565b945050602061205987828801611eb3565b935050604061206a87828801611f5b565b925050606085013567ffffffffffffffff81111561208757600080fd5b61209387828801611f07565b91505092959194509250565b600080604083850312156120b257600080fd5b60006120c085828601611eb3565b92505060206120d185828601611ec8565b9150509250929050565b600080604083850312156120ee57600080fd5b60006120fc85828601611eb3565b925050602061210d85828601611f5b565b9150509250929050565b60006020828403121561212957600080fd5b600061213784828501611edd565b91505092915050565b60006020828403121561215257600080fd5b600061216084828501611ef2565b91505092915050565b6000806040838503121561217c57600080fd5b600083013567ffffffffffffffff81111561219657600080fd5b6121a285828601611f31565b92505060206121b385828601611f5b565b9150509250929050565b6000602082840312156121cf57600080fd5b60006121dd84828501611f5b565b91505092915050565b600080604083850312156121f957600080fd5b600061220785828601611f5b565b925050602061221885828601611f5b565b9150509250929050565b61222b81612e98565b82525050565b61223a81612eaa565b82525050565b600061224b82612d9a565b6122558185612db0565b9350612265818560208601612f1b565b61226e816130b6565b840191505092915050565b600061228482612da5565b61228e8185612dc1565b935061229e818560208601612f1b565b6122a7816130b6565b840191505092915050565b60006122bd82612da5565b6122c78185612dd2565b93506122d7818560208601612f1b565b80840191505092915050565b60006122f0602783612dc1565b91507f596f752063616e27742073616c6520746865205374617220796f7520646f6e2760008301527f74206f776e6564000000000000000000000000000000000000000000000000006020830152604082019050919050565b6000612356602b83612dc1565b91507f596f752063616e2774207472616e7366657220746865205374617220796f752060008301527f646f6e2774206f776e65640000000000000000000000000000000000000000006020830152604082019050919050565b60006123bc603283612dc1565b91507f4552433732313a207472616e7366657220746f206e6f6e20455243373231526560008301527f63656976657220696d706c656d656e74657200000000000000000000000000006020830152604082019050919050565b6000612422601c83612dc1565b91507f4552433732313a20746f6b656e20616c7265616479206d696e746564000000006000830152602082019050919050565b6000612462602483612dc1565b91507f4552433732313a207472616e7366657220746f20746865207a65726f2061646460008301527f72657373000000000000000000000000000000000000000000000000000000006020830152604082019050919050565b60006124c8601983612dc1565b91507f4552433732313a20617070726f766520746f2063616c6c6572000000000000006000830152602082019050919050565b6000612508602c83612dc1565b91507f4552433732313a206f70657261746f7220717565727920666f72206e6f6e657860008301527f697374656e7420746f6b656e00000000000000000000000000000000000000006020830152604082019050919050565b600061256e603883612dc1565b91507f4552433732313a20617070726f76652063616c6c6572206973206e6f74206f7760008301527f6e6572206e6f7220617070726f76656420666f7220616c6c00000000000000006020830152604082019050919050565b60006125d4602a83612dc1565b91507f4552433732313a2062616c616e636520717565727920666f7220746865207a6560008301527f726f2061646472657373000000000000000000000000000000000000000000006020830152604082019050919050565b600061263a602983612dc1565b91507f4552433732313a206f776e657220717565727920666f72206e6f6e657869737460008301527f656e7420746f6b656e00000000000000000000000000000000000000000000006020830152604082019050919050565b60006126a0602083612dc1565b91507f4552433732313a206d696e7420746f20746865207a65726f20616464726573736000830152602082019050919050565b60006126e0602c83612dc1565b91507f4552433732313a20617070726f76656420717565727920666f72206e6f6e657860008301527f697374656e7420746f6b656e00000000000000000000000000000000000000006020830152604082019050919050565b6000612746602983612dc1565b91507f4552433732313a207472616e73666572206f6620746f6b656e2074686174206960008301527f73206e6f74206f776e00000000000000000000000000000000000000000000006020830152604082019050919050565b60006127ac602f83612dc1565b91507f4552433732314d657461646174613a2055524920717565727920666f72206e6f60008301527f6e6578697374656e7420746f6b656e00000000000000000000000000000000006020830152604082019050919050565b6000612812601d83612dc1565b91507f596f75206e65656420746f206861766520656e6f7567682045746865720000006000830152602082019050919050565b6000612852602183612dc1565b91507f4552433732313a20617070726f76616c20746f2063757272656e74206f776e6560008301527f72000000000000000000000000000000000000000000000000000000000000006020830152604082019050919050565b60006128b8602b83612dc1565b91507f596f752063616e27742065786368616e676520746865205374617220796f752060008301527f646f6e2774206f776e65640000000000000000000000000000000000000000006020830152604082019050919050565b600061291e601e83612dc1565b91507f54686520537461722073686f756c6420626520757020666f722073616c6500006000830152602082019050919050565b600061295e603183612dc1565b91507f4552433732313a207472616e736665722063616c6c6572206973206e6f74206f60008301527f776e6572206e6f7220617070726f7665640000000000000000000000000000006020830152604082019050919050565b6129c081612f02565b82525050565b60006129d282856122b2565b91506129de82846122b2565b91508190509392505050565b60006020820190506129ff6000830184612222565b92915050565b6000608082019050612a1a6000830187612222565b612a276020830186612222565b612a3460408301856129b7565b8181036060830152612a468184612240565b905095945050505050565b6000602082019050612a666000830184612231565b92915050565b60006020820190508181036000830152612a868184612279565b905092915050565b60006020820190508181036000830152612aa7816122e3565b9050919050565b60006020820190508181036000830152612ac781612349565b9050919050565b60006020820190508181036000830152612ae7816123af565b9050919050565b60006020820190508181036000830152612b0781612415565b9050919050565b60006020820190508181036000830152612b2781612455565b9050919050565b60006020820190508181036000830152612b47816124bb565b9050919050565b60006020820190508181036000830152612b67816124fb565b9050919050565b60006020820190508181036000830152612b8781612561565b9050919050565b60006020820190508181036000830152612ba7816125c7565b9050919050565b60006020820190508181036000830152612bc78161262d565b9050919050565b60006020820190508181036000830152612be781612693565b9050919050565b60006020820190508181036000830152612c07816126d3565b9050919050565b60006020820190508181036000830152612c2781612739565b9050919050565b60006020820190508181036000830152612c478161279f565b9050919050565b60006020820190508181036000830152612c6781612805565b9050919050565b60006020820190508181036000830152612c8781612845565b9050919050565b60006020820190508181036000830152612ca7816128ab565b9050919050565b60006020820190508181036000830152612cc781612911565b9050919050565b60006020820190508181036000830152612ce781612951565b9050919050565b6000602082019050612d0360008301846129b7565b92915050565b6000604051905081810181811067ffffffffffffffff82111715612d3057612d2f613087565b5b8060405250919050565b600067ffffffffffffffff821115612d5557612d54613087565b5b601f19601f8301169050602081019050919050565b600067ffffffffffffffff821115612d8557612d84613087565b5b601f19601f8301169050602081019050919050565b600081519050919050565b600081519050919050565b600082825260208201905092915050565b600082825260208201905092915050565b600081905092915050565b6000612de882612f02565b9150612df383612f02565b9250827fffffffffffffffffffffffffffffffffffffffffffffffffffffffffffffffff03821115612e2857612e27612ffa565b5b828201905092915050565b6000612e3e82612f02565b9150612e4983612f02565b925082612e5957612e58613029565b5b828204905092915050565b6000612e6f82612f02565b9150612e7a83612f02565b925082821015612e8d57612e8c612ffa565b5b828203905092915050565b6000612ea382612ee2565b9050919050565b60008115159050919050565b60007fffffffff0000000000000000000000000000000000000000000000000000000082169050919050565b600073ffffffffffffffffffffffffffffffffffffffff82169050919050565b6000819050919050565b82818337600083830152505050565b60005b83811015612f39578082015181840152602081019050612f1e565b83811115612f48576000848401525b50505050565b60006002820490506001821680612f6657607f821691505b60208210811415612f7a57612f79613058565b5b50919050565b6000612f8b82612f02565b91507fffffffffffffffffffffffffffffffffffffffffffffffffffffffffffffffff821415612fbe57612fbd612ffa565b5b600182019050919050565b6000612fd482612f02565b9150612fdf83612f02565b925082612fef57612fee613029565b5b828206905092915050565b7f4e487b7100000000000000000000000000000000000000000000000000000000600052601160045260246000fd5b7f4e487b7100000000000000000000000000000000000000000000000000000000600052601260045260246000fd5b7f4e487b7100000000000000000000000000000000000000000000000000000000600052602260045260246000fd5b7f4e487b7100000000000000000000000000000000000000000000000000000000600052604160045260246000fd5b6000601f19601f8301169050919050565b6130d081612e98565b81146130db57600080fd5b50565b6130e781612eaa565b81146130f257600080fd5b50565b6130fe81612eb6565b811461310957600080fd5b50565b61311581612f02565b811461312057600080fd5b5056fea2646970667358221220220014929222878a7fc4b187a5edc62531a375fd32c884f4a25a93e84067856464736f6c63430008000033",
  "immutableReferences": {},
  "source": "//SPDX-License-Identifier: UNLICENSED\n\npragma solidity >=0.8.0;\n\n//Importing openzeppelin-solidity ERC-721 implemented Standard\nimport \"../node_modules/openzeppelin-solidity/contracts/token/ERC721/ERC721.sol\";\n\n// StarNotary Contract declaration inheritance the ERC721 openzeppelin implementation\ncontract StarNotary is ERC721 {\n    constructor() ERC721(\"Star\", \"STR\") {}\n\n    // Star data\n    struct Star {\n        string name;\n        // string symbol;\n    }\n\n    // Implement Task 1 Add a name and symbol properties\n    // name: Is a short name to your token\n    // symbol: Is a short string like 'USD' -> 'American Dollar'\n\n    // mapping the Star with the Owner Address\n    mapping(uint256 => Star) public tokenIdToStarInfo;\n    // mapping the TokenId and price\n    mapping(uint256 => uint256) public starsForSale;\n\n    // Create Star using the Struct\n    function createStar(string memory _name, uint256 _tokenId) public {\n        // Passing the name and tokenId as a parameters\n        Star memory newStar = Star(_name); // Star is an struct so we are creating a new Star\n        tokenIdToStarInfo[_tokenId] = newStar; // Creating in memory the Star -> tokenId mapping\n        _mint(msg.sender, _tokenId); // _mint assign the the star with _tokenId to the sender address (ownership)\n    }\n\n    // Putting an Star for sale (Adding the star tokenid into the mapping starsForSale, first verify that the sender is the owner)\n    function putStarUpForSale(uint256 _tokenId, uint256 _price) public {\n        require(\n            ownerOf(_tokenId) == msg.sender,\n            \"You can't sale the Star you don't owned\"\n        );\n        starsForSale[_tokenId] = _price;\n    }\n\n    // Function that allows you to convert an address into a payable address\n    function _make_payable(address x) internal pure returns (address payable) {\n        return payable(x);\n    }\n\n    function buyStar(uint256 _tokenId) public payable {\n        require(starsForSale[_tokenId] > 0, \"The Star should be up for sale\");\n        uint256 starCost = starsForSale[_tokenId];\n        address ownerAddress = ownerOf(_tokenId);\n        require(msg.value > starCost, \"You need to have enough Ether\");\n        _transfer(ownerAddress, msg.sender, _tokenId); // We can't use _addTokenTo or_removeTokenFrom functions, now we have to use _transferFrom\n        address payable ownerAddressPayable = _make_payable(ownerAddress); // We need to make this conversion to be able to use transfer() function to transfer ethers\n        ownerAddressPayable.transfer(starCost);\n        if (msg.value > starCost) {\n            payable(msg.sender).transfer(msg.value - starCost);\n        }\n    }\n\n    // Implement Task 1 lookUptokenIdToStarInfo\n    function lookUptokenIdToStarInfo(uint256 _tokenId)\n        public\n        view\n        returns (string memory)\n    {\n        //1. You should return the Star saved in tokenIdToStarInfo mapping\n        return tokenIdToStarInfo[_tokenId].name;\n    }\n\n    // function lookUptokenIdToOwnerInfo(uint256 _tokenId)\n    //     public\n    //     view\n    //     returns (address)\n    // {\n    //     //1. You should return the Star saved in tokenIdToStarInfo mapping\n    //     return ownerOf(_tokenId);\n    // }\n\n    // Implement Task 1 Exchange Stars function\n    function exchangeStars(uint256 _tokenId1, uint256 _tokenId2) public {\n        //1. Passing to star tokenId you will need to check if the owner of _tokenId1 or _tokenId2 is the sender\n        //2. You don't have to check for the price of the token (star)\n        //3. Get the owner of the two tokens (ownerOf(_tokenId1), ownerOf(_tokenId1)\n        //4. Use _transferFrom function to exchange the tokens.\n\n        require(\n            ownerOf(_tokenId1) == msg.sender ||\n                ownerOf(_tokenId2) == msg.sender,\n            \"You can't exchange the Star you don't owned\"\n        );\n        // require(\n        //     ownerOf(_tokenId2) == msg.sender,\n        //     \"You can't exchange the Star you don't owned\"\n        // );\n\n        address owner1Address = ownerOf(_tokenId1);\n        address owner2Address = ownerOf(_tokenId2);\n\n        _transfer(owner1Address, owner2Address, _tokenId1);\n        _transfer(owner2Address, owner1Address, _tokenId2);\n    }\n\n    // Implement Task 1 Transfer Stars\n    function transferStar(address _to1, uint256 _tokenId) public {\n        //1. Check if the sender is the ownerOf(_tokenId)\n        //2. Use the transferFrom(from, to, tokenId); function to transfer the Star\n\n        require(\n            ownerOf(_tokenId) == msg.sender,\n            \"You can't transfer the Star you don't owned\"\n        );\n\n        _transfer(msg.sender, _to1, _tokenId);\n    }\n}\n",
  "sourcePath": "/Users/alex/Documents/Blockchain/nd1309-p2-Decentralized-Star-Notary-Service-Starter-Code/contracts/StarNotary.sol",
  "compiler": {
    "name": "solc",
    "version": "0.8.0+commit.c7dfd78e.Emscripten.clang"
  },
  "schemaVersion": "3.4.3",
  "updatedAt": "2021-10-28T16:31:28.133Z",
  "networkType": "ethereum",
  "devdoc": {
    "kind": "dev",
    "methods": {
      "approve(address,uint256)": {
        "details": "See {IERC721-approve}."
      },
      "balanceOf(address)": {
        "details": "See {IERC721-balanceOf}."
      },
      "getApproved(uint256)": {
        "details": "See {IERC721-getApproved}."
      },
      "isApprovedForAll(address,address)": {
        "details": "See {IERC721-isApprovedForAll}."
      },
      "name()": {
        "details": "See {IERC721Metadata-name}."
      },
      "ownerOf(uint256)": {
        "details": "See {IERC721-ownerOf}."
      },
      "safeTransferFrom(address,address,uint256)": {
        "details": "See {IERC721-safeTransferFrom}."
      },
      "safeTransferFrom(address,address,uint256,bytes)": {
        "details": "See {IERC721-safeTransferFrom}."
      },
      "setApprovalForAll(address,bool)": {
        "details": "See {IERC721-setApprovalForAll}."
      },
      "supportsInterface(bytes4)": {
        "details": "See {IERC165-supportsInterface}."
      },
      "symbol()": {
        "details": "See {IERC721Metadata-symbol}."
      },
      "tokenURI(uint256)": {
        "details": "See {IERC721Metadata-tokenURI}."
      },
      "transferFrom(address,address,uint256)": {
        "details": "See {IERC721-transferFrom}."
      }
    },
    "version": 1
  },
  "userdoc": {
    "kind": "user",
    "methods": {},
    "version": 1
  }
}